{
  "_format": "hh-sol-artifact-1",
  "contractName": "Bank",
  "sourceName": "contracts/Bank.sol",
  "abi": [
    {
      "anonymous": false,
      "inputs": [
        {
          "indexed": true,
          "internalType": "address",
          "name": "who",
          "type": "address"
        },
        {
          "indexed": false,
          "internalType": "uint256",
          "name": "amount",
          "type": "uint256"
        }
      ],
      "name": "Deposited",
      "type": "event"
    },
    {
      "anonymous": false,
      "inputs": [
        {
          "indexed": true,
          "internalType": "address",
          "name": "who",
          "type": "address"
        },
        {
          "indexed": false,
          "internalType": "uint256",
          "name": "amount",
          "type": "uint256"
        }
      ],
      "name": "Withdrawn",
      "type": "event"
    },
    {
      "inputs": [
        {
          "internalType": "address",
          "name": "",
          "type": "address"
        }
      ],
      "name": "balances",
      "outputs": [
        {
          "internalType": "uint256",
          "name": "",
          "type": "uint256"
        }
      ],
      "stateMutability": "view",
      "type": "function"
    },
    {
      "inputs": [],
      "name": "contractBalance",
      "outputs": [
        {
          "internalType": "uint256",
          "name": "",
          "type": "uint256"
        }
      ],
      "stateMutability": "view",
      "type": "function"
    },
    {
      "inputs": [],
      "name": "deposit",
      "outputs": [],
      "stateMutability": "payable",
      "type": "function"
    },
    {
      "inputs": [
        {
          "internalType": "uint256",
          "name": "amount",
          "type": "uint256"
        }
      ],
      "name": "withdraw",
      "outputs": [],
      "stateMutability": "nonpayable",
      "type": "function"
    },
    {
      "inputs": [],
      "name": "withdrawAll",
      "outputs": [],
      "stateMutability": "nonpayable",
      "type": "function"
    }
  ],
  "bytecode": "0x608060405234801561001057600080fd5b50610818806100206000396000f3fe60806040526004361061004a5760003560e01c806327e235e31461004f5780632e1a7d4d1461008c578063853828b6146100b55780638b7afe2e146100cc578063d0e30db0146100f7575b600080fd5b34801561005b57600080fd5b506100766004803603810190610071919061053c565b610101565b6040516100839190610582565b60405180910390f35b34801561009857600080fd5b506100b360048036038101906100ae91906105c9565b610119565b005b3480156100c157600080fd5b506100ca610287565b005b3480156100d857600080fd5b506100e16103e9565b6040516100ee9190610582565b60405180910390f35b6100ff6103f1565b005b60006020528060005260406000206000915090505481565b806000803373ffffffffffffffffffffffffffffffffffffffff1673ffffffffffffffffffffffffffffffffffffffff16815260200190815260200160002054101561019a576040517f08c379a000000000000000000000000000000000000000000000000000000000815260040161019190610653565b60405180910390fd5b806000803373ffffffffffffffffffffffffffffffffffffffff1673ffffffffffffffffffffffffffffffffffffffff16815260200190815260200160002060008282546101e891906106a2565b925050819055503373ffffffffffffffffffffffffffffffffffffffff166108fc829081150290604051600060405180830381858888f19350505050158015610235573d6000803e3d6000fd5b503373ffffffffffffffffffffffffffffffffffffffff167f7084f5476618d8e60b11ef0d7d3f06914655adb8793e28ff7f018d4c76d505d58260405161027c9190610582565b60405180910390a250565b60008060003373ffffffffffffffffffffffffffffffffffffffff1673ffffffffffffffffffffffffffffffffffffffff1681526020019081526020016000205490506000811161030d576040517f08c379a000000000000000000000000000000000000000000000000000000000815260040161030490610722565b60405180910390fd5b60008060003373ffffffffffffffffffffffffffffffffffffffff1673ffffffffffffffffffffffffffffffffffffffff168152602001908152602001600020819055503373ffffffffffffffffffffffffffffffffffffffff166108fc829081150290604051600060405180830381858888f19350505050158015610397573d6000803e3d6000fd5b503373ffffffffffffffffffffffffffffffffffffffff167f7084f5476618d8e60b11ef0d7d3f06914655adb8793e28ff7f018d4c76d505d5826040516103de9190610582565b60405180910390a250565b600047905090565b60003411610434576040517f08c379a000000000000000000000000000000000000000000000000000000000815260040161042b9061078e565b60405180910390fd5b346000803373ffffffffffffffffffffffffffffffffffffffff1673ffffffffffffffffffffffffffffffffffffffff168152602001908152602001600020600082825461048291906107ae565b925050819055503373ffffffffffffffffffffffffffffffffffffffff167f2da466a7b24304f47e87fa2e1e5a81b9831ce54fec19055ce277ca2f39ba42c4346040516104cf9190610582565b60405180910390a2565b600080fd5b600073ffffffffffffffffffffffffffffffffffffffff82169050919050565b6000610509826104de565b9050919050565b610519816104fe565b811461052457600080fd5b50565b60008135905061053681610510565b92915050565b600060208284031215610552576105516104d9565b5b600061056084828501610527565b91505092915050565b6000819050919050565b61057c81610569565b82525050565b60006020820190506105976000830184610573565b92915050565b6105a681610569565b81146105b157600080fd5b50565b6000813590506105c38161059d565b92915050565b6000602082840312156105df576105de6104d9565b5b60006105ed848285016105b4565b91505092915050565b600082825260208201905092915050565b7f496e73756666696369656e742062616c616e6365000000000000000000000000600082015250565b600061063d6014836105f6565b915061064882610607565b602082019050919050565b6000602082019050818103600083015261066c81610630565b9050919050565b7f4e487b7100000000000000000000000000000000000000000000000000000000600052601160045260246000fd5b60006106ad82610569565b91506106b883610569565b92508282039050818111156106d0576106cf610673565b5b92915050565b7f5a65726f2062616c616e63650000000000000000000000000000000000000000600082015250565b600061070c600c836105f6565b9150610717826106d6565b602082019050919050565b6000602082019050818103600083015261073b816106ff565b9050919050565b7f4e6f204554482073656e74000000000000000000000000000000000000000000600082015250565b6000610778600b836105f6565b915061078382610742565b602082019050919050565b600060208201905081810360008301526107a78161076b565b9050919050565b60006107b982610569565b91506107c483610569565b92508282019050808211156107dc576107db610673565b5b9291505056fea2646970667358221220f75af11c90771f78a409d7da5c266b9f29d5f7f7b411c4b52a67cdc05a70ec4764736f6c63430008180033",
  "linkReferences": {},
  "deployedLinkReferences": {}
}